S01600006E69626F326F6E6365616761696E2E737265638F
S113000045C0000061C000005FC000005DC000008A
S11300105BC0000059C0000057C0000055C000007C
S113002053C0000051C000004FC000004DC000008C
S11300304BC0000049C0000047C0000045C000009C
S113004043C00000EBC200003FC000003DC0000000
S11300503BC000001CC6000037C0000035C00000D3
S113006033C0000031C000002FC000002DC00000CC
S11300702BC0000029C0000027C0000025C00000DC
S113008023C0000021C000001FC0000011241FBEB7
S1130090CFEFD0E1DEBFCDBF13E0A0E0B1E0EEE2F0
S11300A0F4E100E00BBF02C007900D92AC39B10738
S11300B0D9F724E0ACE9B3E001C01D92AA36B20737
S11300C0E1F76ED10C94150A9BCF8FEF84BB82B9F4
S11300D0BF9ABE9ABD9A0895F8DF83E090E007D2F4
S11300E063D3B5D57894B3D593C208950F931F9372
S11300F0CF93DF93CDB7DEB764970FB6F894DEBF26
S11301000FBECDBF3ED58FE0E0E4F3E0DE011196F3
S113011001900D928A95E1F7FE01709685E0DF016A
S11301201D928A95E9F77BD4892BF9F0EDE0F4E090
S113013081851F928F9387811F928F9385811F9250
S11301408F9383811F928F9381811F928F9384E574
S113015093E09F938F93CE0101969F938F938AD6BA
S11301600FB6F894DEBF0FBECDBF6CE270E08AE03C
S113017090E048D38DE693E046D467E370E08AE0EC
S113018090E040D3CE0101963ED4EDE0F4E0478107
S113019050E0238130E0858190E00597843191051A
S11301A0C4F460919E0370919F03611574408CF4B4
S11301B060919C0370919D036115744054F46EE149
S11301C070E070939F0360939E0370939D0360930C
S11301D09C038A31910554F06CEE7FEF70939F037A
S11301E060939E0370939D0360939C0324313105B7
S11301F0D4F484319105BCF460919E0370919F0303
S1130200611574400CF099C060919C0370919D033A
S1130210611574400CF0AAC06EE170E070939D0308
S113022060939C03A3C02A313105DCF0843191052D
S11302300CF097C020919E0330919F032115344008
S11302400CF080C020919C0330919D032115344013
S11302500CF091C02AE030E030939D0320939C037E
S11302608AC04A305105CCF4449784F580919E03AA
S113027090919F03811594400CF069C080919C0378
S113028090919D03811594400CF07AC08EE190E02A
S113029090939F0380939E0373C040315105B4F043
S11302A04497A4F480919E0390919F0381159440F8
S11302B06CF480919C0390919D038115944034F4D7
S11302C08AE090E090939F0380939E0360919E0345
S11302D070919F0380919C0390919D0343D460E0AF
S11302E070E08AE090E08ED283E893E08CD36AE0F9
S11302F070E08AE090E086D280919F038F93809192
S11303009E038F9380919D038F9380919C038F9381
S113031082E993E09F938F938E010F5F1F4F1F938A
S11303200F93A8D5C8016FD384E690E049D10FB6E6
S1130330F894DEBF0FBECDBF28C02A3131050CF0C2
S113034079CF0AC04A3051050CF490CFA6CF403182
S113035051050CF0A7CFBACF4A3051050CF486CF23
S11303609CCF4A3051050CF4B1CF97CF2A313105D7
S11303700CF068CFF1CF4A3051050CF47FCF8DCF0C
S1130380403151050CF095CFA1CF64960FB6F89487
S1130390DEBF0FBECDBFDF91CF911F910F910895A6
S11303A09BDE81E090E0CFD1A1DEFECF20916500FD
S11303B09091A0039827492F50E080E0FA01E17062
S11303C0F07090FF81E02E7F822B80936500209156
S11303D06500EF2B11F480E001C082E02D7F822BB9
S11303E0809365002091650041FD02C080E001C05A
S11303F088E0277F822B80936500809165008F7E43
S1130400809365008FEF8ABB6BBB95E0892F8A953B
S1130410F1F780916500846080936500892F8A9547
S1130420F1F7809165008B7F809365009A95F1F7D1
S11304301BBA1ABA0895209165009091A0039827D9
S1130440492F50E080E0BA016170707090FF81E044
S11304502E7F822B8093650020916500672B11F419
S113046080E001C082E02D7F822B80936500209183
S1130470650041FD02C080E001C088E0277F822B37
S113048080936500809165008061809365001ABA4D
S113049025E0822F8A95F1F780916500846080932E
S11304A0650085E18A95F1F789B3909165009B7F9A
S11304B0909365002A95F1F708951F93CF93DF93E6
S11304C0982F8091A103882369F0192F1170CFEF21
S11304D0DFEF812FB0DF219787FD02C081E003C0E9
S11304E02097B9F780E0DF91CF911F9108951F9372
S11304F0182F8FEF8093A1031092A00380916400C2
S113050088608093640080916400806180936400BB
S113051080916400846080936400809164008160B1
S11305208093640080916400826080936400B89A30
S11305301ABA80916500877F809365008091650079
S11305408F7E80936500809165008B7F809365002A
S1130550809165008E7F80936500809165008D7F1A
S113056080936500C098979B07C0979880EA9FE0A6
S11305700197F1F7979A04C080EA9FE00197F1F799
S1130580C09A80E09ADF882389F081E096DF88238F
S113059051F0133031F41093A10381E08093A00350
S11305A005C082E001C081E08093A1038091A10392
S11305B08F3F11F41092A1038091A1031F9108951C
S11305C020EA3FE004C0F9013197F1F70197009761
S11305D0D1F70895982F1092DE038093BF039F5F95
S11305E09093C103915086E98093DF03F89403C08C
S11305F078940000F894B09BFBCF80EC8DB99FB940
S113060086E989278093DD03779A789480E00895BA
S1130610B898C098BB9AC39A80E0DCCF1F920F921F
S11306200FB60F920BB60F9211242F933F934F9353
S11306305F936F937F938F939F93AF93BF93EF9346
S1130640FF934FB12091DF0324272093DF035091C0
S1130650DE035523C1F44093BD034C3140F01092A6
S1130660BF031092BD0381E08093C10325C0242FF2
S113067030E08091C10390E028173907ECF04F5F18
S11306804093C10319C0E52FF0E08091BD0390E0D1
S11306908E179F0724F0EF53FC4F40830DC0319712
S11306A0E817F90749F4222339F08091BE038F5FDC
S11306B08093BE031092BD038091BF03581750F47A
S11306C0E52FF0E0EE55FC4F90819FB98091DD035A
S11306D0892711C0581731F48091DD038FB9109226
S11306E0DD030BC08091C103581758F48FEF8FB905
S11306F08091DD0380958093DD035F5F5093DE037B
S11307000FC0B898C0981DB8B898C0988091C0031D
S11307108F5F8093C00378948091BD0342D25ADFE7
S1130720FF91EF91BF91AF919F918F917F916F91C5
S11307305F914F913F912F910F900BBE0F900FBE81
S11307400F901F9018958093E2030895FF920F93E2
S11307501F93F82E08EB80E0B0DE81E0AEDE80E08F
S1130760602F24DE81E0602F21DE10E082E0A5DE30
S113077083E0A3DE82E06F2D19DE83E06F2D16DEA9
S11307801F5F103499F70F5F003C29F780E095DE76
S113079081E093DE80E068EB09DE81E068EB06DE51
S11307A01F910F91FF90089580E087DE80E06FE352
S11307B0FDDD80E082DE80E060ECF8DD80E07DDE5F
S11307C080E060E4F3DD80E078DE80E068EBEEDD7D
S11307D081E073DE81E06FE3E9DD81E06EDE81E0DC
S11307E060ECE4DD81E069DE81E060E4DFDD81E08E
S11307F064DE81E068EBDADD80E0A8DF81E08093ED
S1130800E00308950F931F93082F162F8093E3039B
S11308106093EC0380E051DE81E04FDE169516957F
S11308201695185480E0612FC1DD81E0612FBEDD93
S113083080E043DE81E041DE013430F080E060E4BA
S1130840B5DD81E0602F06C0005C80E0602FAEDD86
S113085081E060E4ABDD1F910F910895EF92FF9268
S11308600F931F93182FE62E8091E30387FD35C065
S113087000E0803408F001E0802F1FDE82E0F82ED3
S1130880F00E8F2DD8DD8F2DD6DD282F9091E0032B
S113089092FF02C010959B7F812F8E21992319F41A
S11308A0182F122B09C0913029F41E2D10951223F4
S11308B0182B02C0182F1227802FFFDD6091E3034D
S11308C06064802F73DD802FF8DD8F2D612F6EDD46
S11308D08091E3038F5F8093E3031F910F91FF9057
S11308E0EF9008958F929F92AF92BF92CF92DF9232
S11308F0EF92FF920F931F93CF93DF93E62E982FDF
S11309008052803608F090E8905286E0989FF0017B
S11309101124E050FF4FF0808091E203882311F40A
S11309207FE1F72E0E2D112707FD10958FEF90E034
S11309309C01002E02C0220F331F0A94E2F7822E7C
S1130940CC24DD24C01AD10A0C2C02C095958795BD
S11309500A94E2F7982EEF0165E0A62EB12CAE0EB4
S1130960BF1EF0FE15C08981E7FC09C090E0002E8F
S113097002C0880F991F0A94E2F7682D08C090E01E
S11309800C2C02C0959587950A94E2F7692D66DFD1
S11309902196CA15DB0511F0F694E3CFE7FC03C0FA
S11309A080E0682D02C080E0692D58DFDF91CF918F
S11309B01F910F91FF90EF90DF90CF90BF90AF9079
S11309C09F908F900895FF920F931F93082FF0909C
S11309D0E3031091EC031770612F84DF112379F086
S11309E06091EC03685F8F2D0DDF1850802F612F0D
S11309F079DF6091EC0368508091E30303DF1F917A
S1130A000F91FF900895CF93DF93EC0102C02196DC
S1130A10DADF88818823D9F7DF91CF910895F8949C
S1130A2090912C0480E020912B04820F911D9093CF
S1130A300E0480930D0490912E0480E020912D04E7
S1130A40820F911D9093100480930F0490913004B1
S1130A5080E020912F04820F911D909312048093C3
S1130A6011049091320480E020913104820F911D91
S1130A7090931404809313049091340480E02091A3
S1130A803304820F911D9093160480931504789477
S1130A90F894809135042091F0033091F103280FEC
S1130AA0311D9091360480E0280F391F30930A04D9
S1130AB020930904809137042091EE033091EF03D1
S1130AC0280F311D9091380480E0280F391F30938E
S1130AD022042093210490913A0480E02091390467
S1130AE0820F911D90934A048093490490913C0491
S1130AF080E020913B04820F911D90932004809309
S1130B001F0490913E0480E020913D04820F911DCA
S1130B109093F3038093F2039091400480E020913A
S1130B203F04820F911D90932A04809329047894A2
S1130B30F8949091430480E020914204820F911D27
S1130B4090930C0480930B049091450480E02091D1
S1130B504404820F911D9093470480934604789433
S1130B6081E00895F89422E02093F4038093F50340
S1130B709093F6036093F7037093F803789481E0FD
S1130B80089578942091FB0380E197E2019711F096
S1130B902F3FE1F7F89487E08093FB03789481E09A
S1130BA00895909148049F5F909348048B3141F4D9
S1130BB0ABE2B4E0E2ECF3E001900D928150E1F796
S1130BC08FEF8093B0038093A9038093A203809155
S1130BD0F4038F3F11F490E00DC0A2EAB3E0E4EF18
S1130BE0F3E087E001900D928150E1F78FEF80935D
S1130BF0F40397E08091FB038F3F79F0E92FF0E055
S1130C00EE55FC4FABEFB3E087E00D9001928150BD
S1130C10E1F78FEF8093FB03995F809102048F3F8C
S1130C2081F0E92FF0E0EE55FC4FA2E0B4E087E05C
S1130C300D9001928150E1F78FEF8093020485E1DA
S1130C400895992311F487E0089585E108951F9389
S1130C501FB7F8948F9A979880E49CE90197F1F76D
S1130C60979A88EE93E020E931E0F9013197F1F7A2
S1130C700197D9F703D01FBF1F9108958FEE86B94E
S1130C80E1E6F0E0808180648083089508951F92F6
S1130C900F920FB60F920BB60F9211242F933F931E
S1130CA04F935F936F937F938F939F93AF93BF9370
S1130CB0EF93FF9320914B0484B195B14091680464
S1130CC050916904480F591F509369044093680474
S1130CD0263009F443C0273078F4223059F1233008
S1130CE030F42223E9F0213009F062C01EC0243020
S1130CF059F1253070F523C0293009F441C02A3058
S1130D0030F4273081F1283009F052C034C02B3040
S1130D1009F445C02B30C8F12C3009F049C044C057
S1130D20909357048093560443C09093590480933E
S1130D3058041DC090934F0480934E0439C090937F
S1130D405F0480935E0434C09093610480936004D4
S1130D5020C090935304809352042AC090935B0460
S1130D6080935A0425C090935D0480935C04809121
S1130D706200806411C0909351048093500418C0A1
S1130D80909363048093620413C0909365048093EA
S1130D906404809162008F7B8093620009C0909309
S1130DA055048093540404C09093670480936604AC
S1130DB0822F8F5F80934B048D3058F010924B0438
S1130DC0CA01880F991F57FD019690936904809377
S1130DD0680480914B04863061F1873070F482306E
S1130DE0F9F0833028F48823C1F0813041F51DC027
S1130DF08430D9F08530D8F416C08930D1F08A30E7
S1130E0028F48730C1F08830D1F411C08B30A9F0B8
S1130E108B3088F08C3099F403C083E487B911C017
S1130E2082E487B914C083E4FCCF85E4FACF81E47B
S1130E30F8CF80E4F6CF84E4F4CF87E4F2CF8823BC
S1130E4031F424DF80914D048F5F80934D04FF9132
S1130E50EF91BF91AF919F918F917F916F915F912E
S1130E604F913F912F910F900BBE0F900FBE0F909B
S1130E701F9018950F931F93CF93DF93CDB7DEB7D1
S1130E802E970FB6F894DEBF0FBECDBF0D891E8915
S1130E9086E08C831A8309838FEF9FE79E838D837B
S1130EA0AE01475E5F4F6F89788DCE01019610D0F9
S1130EB0EF81F885E00FF11F10822E960FB6F8949B
S1130EC0DEBF0FBECDBFDF91CF911F910F9108956B
S1130ED02F923F924F925F926F927F928F929F9246
S1130EE0AF92BF92CF92DF92EF92FF920F931F9334
S1130EF0CF93DF93CDB7DEB72B970FB6F894DEBF51
S1130F000FBECDBF6C017B018A01FC0117821682E2
S1130F10838181FFBFC1CE0101963C01F60193811B
S1130F20F70193FD859193FF81917F01882309F453
S1130F30ADC1853239F493FD859193FF81917F0191
S1130F40853221F4B60190E0D6D1E8CF912C212C42
S1130F50312CFFE1F315D8F08B3279F038F480327C
S1130F6079F08332A1F4232D20611DC08D3261F00C
S1130F70803369F4232D216016C0832D8260382EBE
S1130F80E32DE4603E2E2AC0F32DF8601DC037FC2B
S1130F902DC020ED280F2A3040F08E32B9F436FCF3
S1130FA075C1232D2064322E19C036FE06C08AE096
S1130FB0989E200D1124922E11C0EAE02E9E200D41
S1130FC01124222EF32DF0623F2E08C08C3621F41A
S1130FD0832D8068382E02C0883641F4F70193FDD2
S1130FE0859193FF81917F018111B3CF982F9F7DCC
S1130FF09554933028F40C5F1F4F9FE399830DC0E1
S1131000833631F0833771F0833509F055C020C041
S1131010F801808189830E5F1F4F88248394912C6B
S1131020530112C02801F2E04F0E511CF801A080B8
S1131030B18036FE03C0692D70E002C06FEF7FEF10
S1131040C5014ED14C018201F32DFF773F2E15C00F
S1131050280122E0420E511CF801A080B18036FE26
S113106003C0692D70E002C06FEF7FEFC5012DD181
S11310704C01F32DF0683F2E820133FC19C0822D00
S113108090E088169906A0F4B60180E290E033D18E
S11310902A94F5CFF50137FC859137FE81915F01E4
S11310A0B60190E028D121102A9421E0821A9108F7
S11310B08114910479F7E1C0843611F0893639F549
S11310C0F80137FE07C060817181828193810C5FD2
S11310D01F4F08C060817181072E000C880B990B8B
S11310E00E5F1F4FF32DFF763F2E97FF09C090959B
S11310F08095709561957F4F8F4F9F4FF0683F2E7D
S11311002AE030E0A30133D1882E861844C0853705
S113111031F4232D2F7EB22E2AE030E025C0932D0A
S1131120997FB92E8F36C1F018F4883579F0AEC0A6
S1131130803719F0883721F0A9C0E92FE061BE2E6D
S1131140B4FE0DC0FB2DF460BF2E09C034FE0AC0EE
S1131150292F2660B22E06C028E030E005C020E129
S113116030E002C020E132E0F801B7FE07C0608140
S11311707181828193810C5F1F4F06C060817181F0
S113118080E090E00E5F1F4FA301F1D0882E8618F7
S1131190FB2DFF773F2E36FE0DC0232D2E7FA22E72
S11311A0891458F434FE0BC032FC09C0832D8E7EA2
S11311B0A82E05C0B82CA32C03C0B82C01C0B92C90
S11311C0A4FE0FC0FE01E80DF11D8081803321F4DF
S11311D09A2D997EA92E09C0A2FE06C0B394B39499
S11311E004C08A2D867809F0B394A3FC10C0A0FE35
S11311F006C0B21480F4280C922C9B180DC0B214B3
S113120058F4B60180E290E076D0B394F8CFB214EB
S113121018F42B1802C0982C212CA4FE0FC0B60180
S113122080E390E068D0A2FE16C0A1FC03C088E76A
S113123090E002C088E590E0B6010CC08A2D867863
S113124051F0A1FE02C08BE201C080E2A7FC8DE256
S1131250B60190E050D0891430F4B60180E390E0F8
S11312604AD09A94F8CF8A94F301E80DF11D808155
S1131270B60190E040D08110F6CF222009F44ECE82
S1131280B60180E290E037D02A94F7CFF601868148
S1131290978102C08FEF9FEF2B960FB6F894DEBFB5
S11312A00FBECDBFDF91CF911F910F91FF90EF90B3
S11312B0DF90CF90BF90AF909F908F907F906F9072
S11312C05F904F903F902F900895FC0105906150DE
S11312D070400110D8F7809590958E0F9F1F089548
S11312E0FC016150704001900110D8F780959095F1
S11312F08E0F9F1F08950F931F93CF93DF93FB01CE
S1131300238121FD03C08FEF9FEF2CC022FF16C065
S113131046815781248135814217530744F4A081C3
S1131320B1819D012F5F3F4F318320838C932681B0
S113133037812F5F3F4F3783268314C08B01EC0125
S1131340FB010084F185E02D0995892BE1F6D80194
S113135016968D919C911797019617969C938E9350
S11313601697CE01DF91CF911F910F910895FA0145
S1131370AA27283051F1203181F1E8946F936E7FD0
S11313806E5F7F4F8F4F9F4FAF4FB1E03ED0B4E0C1
S11313903CD0670F781F891F9A1FA11D680F791F02
S11313A08A1F911DA11D6A0F711D811D911DA11D13
S11313B020D009F468943F912AE0269F1124301923
S11313C0305D3193DEF6CF010895462F4770405DBE
S11313D04193B3E00FD0C9F7F6CF462F4F70405D6D
S11313E04A3318F0495D31FD4052419302D0A9F7C8
S11313F0EACFB4E0A6959795879577956795BA95C2
S1131400C9F700976105710508959B01AC010A2E87
S113141006945795479537952795BA95C9F7620F5E
S1111420731F841F951FA01D0895F894FFCF1D
S113142E0300000000000400005F00000E0007002F
S113143E07001F147F147F141F242A7F2A121F23D0
S113144E130864621F364955225006000503000036
S113145E0E001C2241000E0041221C001F14083EE7
S113146E08141F08083E08080600A06000000F08B4
S113147E080808080600606000000E00601C0300E7
S113148E1F3E5149453E0E00427F40001F426151AE
S113149E49461D2141454B311F1814127F101D273B
S11314AE45454539173C4A4949301E017109050322
S11314BE1D36494949361D064949291E0600363648
S11314CE00000600AC6C00000F08142241000F143B
S11314DE141414141E00412214081F02015109068B
S11314EE1F324979413E1F7C1211127C177F4949E4
S11314FE4936173E414141221F7F4141221C177F2D
S113150E49494941177F09090901173E4149497A59
S113151E177F0808087F0E00417F41001F204041BD
S113152E3F011F7F08142241177F404040401F7F18
S113153E020C027F1F7F0408107F173E4141413E7B
S113154E177F09090906173E414141BE1D7F09193E
S113155E29461746494949311F01017F0101173FA9
S113156E4040403F1F1F2040201F1F3F4038403F38
S113157E1F63140814631F07087008071F6151497D
S113158E45430E007F4141000E00031C60000E0017
S113159E41417F000E04020102041F4040404040BE
S11315AE0C0000030400172054545478177F484449
S11315BE44381738444444201D384444487F17386F
S11315CE5454541817087E0901021718A4A4A478B9
S11315DE177F080404780E00447D40000D4080847B
S11315EE7D000F7F102844000E00417F40001F7CB9
S11315FE04780478177C0804047817384444443873
S113160E17FC242424181718242424FC177C0804FB
S113161E040817485454542017043F4440201D3CDA
S113162E4040207C1F1C2040201C1F3C4030403C6E
S113163E1F4428102844171CA0A0A07C1F446454E7
S113164E4C440E00083641000400007F00000E00DA
S113165E413608001F02010204021FAA55AA55AA08
S113166E2D2D202D2D202D2D202D2D202D2D000026
S113167E00000000253032782025303278202530C5
S113168E32782025303278202530327800456E7439
S113169E6665726E756E677373656E736F72656E63
S11316AE3A2000456E67696E655F73706565643ACE
S10F16BE20002530326420253032640006
S9030000FC
