S01600006E69626F326F6E6365616761696E2E737265638F
S113000045C0000060C000005EC000005CC000008D
S11300105AC0000058C0000056C0000054C0000080
S113002052C0000050C000004EC000004CC0000090
S11300304AC0000048C0000046C0000044C00000A0
S113004042C0000040C000003EC000003CC00000B0
S11300503AC0000038C0000036C0000034C00000C0
S113006032C0000030C000002EC000002CC00000D0
S11300702AC0000028C0000026C0000024C00000E0
S113008022C0000020C000001EC0000011241FBEBA
S1130090CFEFD0E1DEBFCDBF13E0A0E0B1E0ECE6EE
S11300A0FBE000E00BBF02C007900D92AA37B10736
S11300B0D9F723E0AAE7B3E001C01D92AA38B2073A
S11300C0E1F709D051C59CCF8FEF84BB82B9BF9AA9
S11300D0BE9ABD9A0895F8DF88B3806E88BB8FEF0F
S11300E085BB83E090E0BED057D181E090E023D17E
S11300F060E070E080E090E07DD180E493E07BD22A
S113010064E170E082E390E075D182E593E073D21C
S113011067E370E080E090E06DD188E593E06BD216
S1130120FFCF2091650090917A039827492F50E0E2
S113013080E0FA01E170F07090FF81E02E7F822B65
S11301408093650020916500EF2B11F480E001C0DD
S113015082E02D7F822B809365002091650041FD14
S113016002C080E001C088E0277F822B8093650075
S1130170809165008F7E809365008FEF8ABB6BBB97
S113018095E0892F8A95F1F78091650084608093CA
S11301906500892F8A95F1F7809165008B7F8093A4
S11301A065009A95F1F71BBA1ABA08952091650073
S11301B090917A039827492F50E080E0BA0161704A
S11301C0707090FF81E02E7F822B809365002091D8
S11301D06500672B11F480E001C082E02D7F822B43
S11301E0809365002091650041FD02C080E001C05C
S11301F088E0277F822B8093650080916500806171
S1130200809365001ABA25E0822F8A95F1F78091D0
S1130210650084608093650085E18A95F1F789B370
S1130220909165009B7F909365002A95F1F708955E
S11302301F93CF93DF93982F80917B03882369F0DA
S1130240192F1170CFEFDFEF812FB0DF219787FDDA
S113025002C081E003C02097B9F780E0DF91CF911D
S11302601F9108951F93182F8FEF80937B03109293
S11302707A038091640088608093640080916400B4
S11302808061809364008091640084608093640042
S11302908091640081608093640080916400826036
S11302A080936400B89A1ABA80916500877F80931E
S11302B06500809165008F7E809365008091650064
S11302C08B7F80936500809165008E7F80936500AD
S11302D0809165008D7F80936500C098979B07C0CF
S11302E0979880EA9FE00197F1F7979A04C080EA13
S11302F09FE00197F1F7C09A80E09ADF882389F0A4
S113030081E096DF882351F0133031F410937B039E
S113031081E080937A0305C082E001C081E080938C
S11303207B0380917B038F3F11F410927B038091B8
S11303307B031F91089580937E030895FF920F938A
S11303401F93F82E08EB80E073DF81E071DF80E01B
S1130350602FE7DE81E0602FE4DE10E082E068DFFA
S113036083E066DF82E06F2DDCDE83E06F2DD9DE73
S11303701F5F103499F70F5F003C29F780E058DFC6
S113038081E056DF80E068EBCCDE81E068EBC9DE1B
S11303901F910F91FF90089580E04ADF80E06FE3A2
S11303A0C0DE80E045DF80E060ECBBDE80E040DF63
S11303B080E060E4B6DE80E03BDF80E068EBB1DE45
S11303C081E036DF81E06FE3ACDE81E031DF81E0A4
S11303D060ECA7DE81E02CDF81E060E4A2DE81E056
S11303E027DF81E068EB9DDE80E0A8DF81E0809379
S11303F07C0308950F931F93082F162F80937F0378
S11304006093880380E014DF81E012DF169516956F
S11304101695185480E0612F84DE81E0612F81DE1F
S113042080E006DF81E004DF013430F080E060E446
S113043078DE81E0602F06C0005C80E0602F71DE12
S113044081E060E46EDE1F910F910895EF92FF92B8
S11304500F931F93182FE62E80917F0387FD35C0DD
S113046000E0803408F001E0802FE2DE82E0F82E24
S1130470F00E8F2D9BDE8F2D99DE282F90917C031B
S113048092FF02C010959B7F812F8E21992319F42E
S1130490182F122B09C0913029F41E2D1095122308
S11304A0182B02C0182F1227802FC2DE60917F0301
S11304B06064802F36DE802FBBDE8F2D612F31DE0E
S11304C080917F038F5F80937F031F910F91FF9033
S11304D0EF9008958F929F92AF92BF92CF92DF9246
S11304E0EF92FF920F931F93CF93DF93E62E982FF3
S11304F08052803608F090E8905286E0989FF00190
S11305001124E050FF4FF08080917E03882311F482
S11305107FE1F72E0E2D112707FD10958FEF90E048
S11305209C01002E02C0220F331F0A94E2F7822E90
S1130530CC24DD24C01AD10A0C2C02C095958795D1
S11305400A94E2F7982EEF0165E0A62EB12CAE0EC8
S1130550BF1EF0FE15C08981E7FC09C090E0002EA3
S113056002C0880F991F0A94E2F7682D08C090E032
S11305700C2C02C0959587950A94E2F7692D66DFE5
S11305802196CA15DB0511F0F694E3CFE7FC03C00E
S113059080E0682D02C080E0692D58DFDF91CF91A3
S11305A01F910F91FF90EF90DF90CF90BF90AF908D
S11305B09F908F900895FF920F931F93082FF090B0
S11305C07F03109188031770612F84DF112379F062
S11305D060918803685F8F2D0DDF1850802F612F85
S11305E079DF60918803685080917F0303DF1F9156
S11305F00F91FF900895CF93DF93EC0102C02196F1
S1130600DADF88818823D9F7DF91CF9108952F927B
S11306103F924F925F926F927F928F929F92AF928E
S1130620BF92CF92DF92EF92FF920F931F93CF93DB
S1130630DF93CDB7DEB72B970FB6F894DEBF0FBEAE
S1130640CDBF6C017B018A01FC0117821682838174
S113065081FFBFC1CE0101963C01F6019381F701F0
S113066093FD859193FF81917F01882309F4ADC1A6
S1130670853239F493FD859193FF81917F01853211
S113068021F4B60190E0D6D1E8CF912C212C312C65
S1130690FFE1F315D8F08B3279F038F4803279F039
S11306A08332A1F4232D20611DC08D3261F080338B
S11306B069F4232D216016C0832D8260382EE32D2A
S11306C0E4603E2E2AC0F32DF8601DC037FC2DC017
S11306D020ED280F2A3040F08E32B9F436FC75C173
S11306E0232D2064322E19C036FE06C08AE0989E5F
S11306F0200D1124922E11C0EAE02E9E200D11240B
S1130700222EF32DF0623F2E08C08C3621F4832D67
S11307108068382E02C0883641F4F70193FD859134
S113072093FF81917F018111B3CF982F9F7D9554C1
S1130730933028F40C5F1F4F9FE399830DC08336D9
S113074031F0833771F0833509F055C020C0F801CA
S1130750808189830E5F1F4F88248394912C5301D9
S113076012C02801F2E04F0E511CF801A080B180A4
S113077036FE03C0692D70E002C06FEF7FEFC50144
S11307804ED14C018201F32DFF773F2E15C0280175
S113079022E0420E511CF801A080B18036FE03C055
S11307A0692D70E002C06FEF7FEFC5012DD14C01C0
S11307B0F32DF0683F2E820133FC19C0822D90E0A6
S11307C088169906A0F4B60180E290E033D12A9409
S11307D0F5CFF50137FC859137FE81915F01B601B4
S11307E090E028D121102A9421E0821A91088114E2
S11307F0910479F7E1C0843611F0893639F5F801AE
S113080037FE07C060817181828193810C5F1F4F25
S113081008C060817181072E000C880B990B0E5F54
S11308201F4FF32DFF763F2E97FF09C090958095BB
S1130830709561957F4F8F4F9F4FF0683F2E2AE050
S113084030E0A30133D1882E861844C0853731F4B3
S1130850232D2F7EB22E2AE030E025C0932D997FE0
S1130860B92E8F36C1F018F4883579F0AEC08037D0
S113087019F0883721F0A9C0E92FE061BE2EB4FE3B
S11308800DC0FB2DF460BF2E09C034FE0AC0292F11
S11308902660B22E06C028E030E005C020E130E03A
S11308A002C020E132E0F801B7FE07C06081718127
S11308B0828193810C5F1F4F06C06081718180E04B
S11308C090E00E5F1F4FA301F1D0882E8618FB2DF8
S11308D0FF773F2E36FE0DC0232D2E7FA22E8914C6
S11308E058F434FE0BC032FC09C0832D8E7EA82E32
S11308F005C0B82CA32C03C0B82C01C0B92CA4FE8D
S11309000FC0FE01E80DF11D8081803321F49A2D82
S1130910997EA92E09C0A2FE06C0B394B39404C064
S11309208A2D867809F0B394A3FC10C0A0FE06C0FB
S1130930B21480F4280C922C9B180DC0B21458F4F5
S1130940B60180E290E076D0B394F8CFB21418F4F4
S11309502B1802C0982C212CA4FE0FC0B60180E3F2
S113096090E068D0A2FE16C0A1FC03C088E790E026
S113097002C088E590E0B6010CC08A2D867851F05B
S1130980A1FE02C08BE201C080E2A7FC8DE2B601A9
S113099090E050D0891430F4B60180E390E04AD05E
S11309A09A94F8CF8A94F301E80DF11D8081B60181
S11309B090E040D08110F6CF222009F44ECEB6014B
S11309C080E290E037D02A94F7CFF60186819781B0
S11309D002C08FEF9FEF2B960FB6F894DEBF0FBEC9
S11309E0CDBFDF91CF911F910F91FF90EF90DF90DA
S11309F0CF90BF90AF909F908F907F906F905F90BB
S1130A004F903F902F900895FC01059061507040E5
S1130A100110D8F7809590958E0F9F1F0895FC01C3
S1130A206150704001900110D8F7809590958E0F19
S1130A309F1F08950F931F93CF93DF93FB0123818F
S1130A4021FD03C08FEF9FEF2CC022FF16C046810B
S1130A505781248135814217530744F4A081B18121
S1130A609D012F5F3F4F318320838C9326813781F3
S1130A702F5F3F4F3783268314C08B01EC01FB01AA
S1130A800084F185E02D0995892BE1F6D8011696AD
S1130A908D919C911797019617969C938E93169718
S1130AA0CE01DF91CF911F910F910895FA01AA27EA
S1130AB0283051F1203181F1E8946F936E7F6E5F9D
S1130AC07F4F8F4F9F4FAF4FB1E03ED0B4E03CD04B
S1130AD0670F781F891F9A1FA11D680F791F8A1F2E
S1130AE0911DA11D6A0F711D811D911DA11D20D095
S1130AF009F468943F912AE0269F11243019305D4F
S1130B003193DEF6CF010895462F4770405D41933F
S1130B10B3E00FD0C9F7F6CF462F4F70405D4A338C
S1130B2018F0495D31FD4052419302D0A9F7EACF54
S1130B30B4E0A6959795879577956795BA95C9F783
S1130B4000976105710508959B01AC010A2E069476
S1130B505795479537952795BA95C9F7620F731F2F
S10F0B60841F951FA01D0895F894FFCF7A
S1130B6C0300000000000400005F00000E000700FA
S1130B7C07001F147F147F141F242A7F2A121F239B
S1130B8C130864621F364955225006000503000001
S1130B9C0E001C2241000E0041221C001F14083EB2
S1130BAC08141F08083E08080600A06000000F087F
S1130BBC080808080600606000000E00601C0300B2
S1130BCC1F3E5149453E0E00427F40001F42615179
S1130BDC49461D2141454B311F1814127F101D2706
S1130BEC45454539173C4A4949301E0171090503ED
S1130BFC1D36494949361D064949291E0600363613
S1130C0C00000600AC6C00000F08142241000F1405
S1130C1C141414141E00412214081F020151090655
S1130C2C1F324979413E1F7C1211127C177F4949AE
S1130C3C4936173E414141221F7F4141221C177FF7
S1130C4C49494941177F09090901173E4149497A24
S1130C5C177F0808087F0E00417F41001F20404188
S1130C6C3F011F7F08142241177F404040401F7FE3
S1130C7C020C027F1F7F0408107F173E4141413E46
S1130C8C177F09090906173E414141BE1D7F091909
S1130C9C29461746494949311F01017F0101173F74
S1130CAC4040403F1F1F2040201F1F3F4038403F03
S1130CBC1F63140814631F07087008071F61514948
S1130CCC45430E007F4141000E00031C60000E00E2
S1130CDC41417F000E04020102041F404040404089
S1130CEC0C0000030400172054545478177F484414
S1130CFC44381738444444201D384444487F17383A
S1130D0C5454541817087E0901021718A4A4A47883
S1130D1C177F080404780E00447D40000D40808445
S1130D2C7D000F7F102844000E00417F40001F7C83
S1130D3C04780478177C080404781738444444383D
S1130D4C17FC242424181718242424FC177C0804C6
S1130D5C040817485454542017043F4440201D3CA5
S1130D6C4040207C1F1C2040201C1F3C4030403C39
S1130D7C1F4428102844171CA0A0A07C1F446454B2
S1130D8C4C440E00083641000400007F00000E00A5
S1130D9C413608001F02010204021FAA55AA55AAD3
S1130DAC48616C6C6F206962696D732065696E7340
S1130DBC20004E69626F32002FA726653332342F20
S1130DCC26545247485341646867667A2054455305
S10D0DDC5420617377696675000006
S9030000FC
